{
  "_format": "hh-sol-artifact-1",
  "contractName": "Domains",
  "sourceName": "contracts/Domains.sol",
  "abi": [
    {
      "inputs": [
        {
          "internalType": "string",
          "name": "_tld",
          "type": "string"
        }
      ],
      "stateMutability": "payable",
      "type": "constructor"
    },
    {
      "anonymous": false,
      "inputs": [
        {
          "indexed": true,
          "internalType": "address",
          "name": "owner",
          "type": "address"
        },
        {
          "indexed": true,
          "internalType": "address",
          "name": "approved",
          "type": "address"
        },
        {
          "indexed": true,
          "internalType": "uint256",
          "name": "tokenId",
          "type": "uint256"
        }
      ],
      "name": "Approval",
      "type": "event"
    },
    {
      "anonymous": false,
      "inputs": [
        {
          "indexed": true,
          "internalType": "address",
          "name": "owner",
          "type": "address"
        },
        {
          "indexed": true,
          "internalType": "address",
          "name": "operator",
          "type": "address"
        },
        {
          "indexed": false,
          "internalType": "bool",
          "name": "approved",
          "type": "bool"
        }
      ],
      "name": "ApprovalForAll",
      "type": "event"
    },
    {
      "anonymous": false,
      "inputs": [
        {
          "indexed": true,
          "internalType": "address",
          "name": "from",
          "type": "address"
        },
        {
          "indexed": true,
          "internalType": "address",
          "name": "to",
          "type": "address"
        },
        {
          "indexed": true,
          "internalType": "uint256",
          "name": "tokenId",
          "type": "uint256"
        }
      ],
      "name": "Transfer",
      "type": "event"
    },
    {
      "inputs": [
        {
          "internalType": "address",
          "name": "to",
          "type": "address"
        },
        {
          "internalType": "uint256",
          "name": "tokenId",
          "type": "uint256"
        }
      ],
      "name": "approve",
      "outputs": [],
      "stateMutability": "nonpayable",
      "type": "function"
    },
    {
      "inputs": [
        {
          "internalType": "address",
          "name": "owner",
          "type": "address"
        }
      ],
      "name": "balanceOf",
      "outputs": [
        {
          "internalType": "uint256",
          "name": "",
          "type": "uint256"
        }
      ],
      "stateMutability": "view",
      "type": "function"
    },
    {
      "inputs": [
        {
          "internalType": "string",
          "name": "",
          "type": "string"
        }
      ],
      "name": "domains",
      "outputs": [
        {
          "internalType": "address",
          "name": "",
          "type": "address"
        }
      ],
      "stateMutability": "view",
      "type": "function"
    },
    {
      "inputs": [
        {
          "internalType": "string",
          "name": "name",
          "type": "string"
        }
      ],
      "name": "getAddress",
      "outputs": [
        {
          "internalType": "address",
          "name": "",
          "type": "address"
        }
      ],
      "stateMutability": "view",
      "type": "function"
    },
    {
      "inputs": [
        {
          "internalType": "uint256",
          "name": "tokenId",
          "type": "uint256"
        }
      ],
      "name": "getApproved",
      "outputs": [
        {
          "internalType": "address",
          "name": "",
          "type": "address"
        }
      ],
      "stateMutability": "view",
      "type": "function"
    },
    {
      "inputs": [
        {
          "internalType": "string",
          "name": "name",
          "type": "string"
        }
      ],
      "name": "getRecord",
      "outputs": [
        {
          "internalType": "string",
          "name": "",
          "type": "string"
        }
      ],
      "stateMutability": "view",
      "type": "function"
    },
    {
      "inputs": [
        {
          "internalType": "address",
          "name": "owner",
          "type": "address"
        },
        {
          "internalType": "address",
          "name": "operator",
          "type": "address"
        }
      ],
      "name": "isApprovedForAll",
      "outputs": [
        {
          "internalType": "bool",
          "name": "",
          "type": "bool"
        }
      ],
      "stateMutability": "view",
      "type": "function"
    },
    {
      "inputs": [],
      "name": "name",
      "outputs": [
        {
          "internalType": "string",
          "name": "",
          "type": "string"
        }
      ],
      "stateMutability": "view",
      "type": "function"
    },
    {
      "inputs": [
        {
          "internalType": "uint256",
          "name": "tokenId",
          "type": "uint256"
        }
      ],
      "name": "ownerOf",
      "outputs": [
        {
          "internalType": "address",
          "name": "",
          "type": "address"
        }
      ],
      "stateMutability": "view",
      "type": "function"
    },
    {
      "inputs": [
        {
          "internalType": "string",
          "name": "name",
          "type": "string"
        }
      ],
      "name": "price",
      "outputs": [
        {
          "internalType": "uint256",
          "name": "",
          "type": "uint256"
        }
      ],
      "stateMutability": "pure",
      "type": "function"
    },
    {
      "inputs": [
        {
          "internalType": "string",
          "name": "",
          "type": "string"
        }
      ],
      "name": "records",
      "outputs": [
        {
          "internalType": "string",
          "name": "",
          "type": "string"
        }
      ],
      "stateMutability": "view",
      "type": "function"
    },
    {
      "inputs": [
        {
          "internalType": "string",
          "name": "name",
          "type": "string"
        }
      ],
      "name": "register",
      "outputs": [],
      "stateMutability": "payable",
      "type": "function"
    },
    {
      "inputs": [
        {
          "internalType": "address",
          "name": "from",
          "type": "address"
        },
        {
          "internalType": "address",
          "name": "to",
          "type": "address"
        },
        {
          "internalType": "uint256",
          "name": "tokenId",
          "type": "uint256"
        }
      ],
      "name": "safeTransferFrom",
      "outputs": [],
      "stateMutability": "nonpayable",
      "type": "function"
    },
    {
      "inputs": [
        {
          "internalType": "address",
          "name": "from",
          "type": "address"
        },
        {
          "internalType": "address",
          "name": "to",
          "type": "address"
        },
        {
          "internalType": "uint256",
          "name": "tokenId",
          "type": "uint256"
        },
        {
          "internalType": "bytes",
          "name": "_data",
          "type": "bytes"
        }
      ],
      "name": "safeTransferFrom",
      "outputs": [],
      "stateMutability": "nonpayable",
      "type": "function"
    },
    {
      "inputs": [
        {
          "internalType": "address",
          "name": "operator",
          "type": "address"
        },
        {
          "internalType": "bool",
          "name": "approved",
          "type": "bool"
        }
      ],
      "name": "setApprovalForAll",
      "outputs": [],
      "stateMutability": "nonpayable",
      "type": "function"
    },
    {
      "inputs": [
        {
          "internalType": "string",
          "name": "name",
          "type": "string"
        },
        {
          "internalType": "string",
          "name": "record",
          "type": "string"
        }
      ],
      "name": "setRecord",
      "outputs": [],
      "stateMutability": "nonpayable",
      "type": "function"
    },
    {
      "inputs": [
        {
          "internalType": "bytes4",
          "name": "interfaceId",
          "type": "bytes4"
        }
      ],
      "name": "supportsInterface",
      "outputs": [
        {
          "internalType": "bool",
          "name": "",
          "type": "bool"
        }
      ],
      "stateMutability": "view",
      "type": "function"
    },
    {
      "inputs": [],
      "name": "symbol",
      "outputs": [
        {
          "internalType": "string",
          "name": "",
          "type": "string"
        }
      ],
      "stateMutability": "view",
      "type": "function"
    },
    {
      "inputs": [],
      "name": "tld",
      "outputs": [
        {
          "internalType": "string",
          "name": "",
          "type": "string"
        }
      ],
      "stateMutability": "view",
      "type": "function"
    },
    {
      "inputs": [
        {
          "internalType": "uint256",
          "name": "tokenId",
          "type": "uint256"
        }
      ],
      "name": "tokenURI",
      "outputs": [
        {
          "internalType": "string",
          "name": "",
          "type": "string"
        }
      ],
      "stateMutability": "view",
      "type": "function"
    },
    {
      "inputs": [
        {
          "internalType": "address",
          "name": "from",
          "type": "address"
        },
        {
          "internalType": "address",
          "name": "to",
          "type": "address"
        },
        {
          "internalType": "uint256",
          "name": "tokenId",
          "type": "uint256"
        }
      ],
      "name": "transferFrom",
      "outputs": [],
      "stateMutability": "nonpayable",
      "type": "function"
    }
  ],
  "bytecode": "0x6080604052604051806107a001604052806107748152602001620049c16107749139600990805190602001906200003892919062000287565b506040518060400160405280600d81526020017f3c2f746578743e3c2f7376673e00000000000000000000000000000000000000815250600a90805190602001906200008692919062000287565b5060405162005135380380620051358339818101604052810190620000ac9190620004d4565b6040518060400160405280601181526020017f57454233204e616d6520536572766963650000000000000000000000000000008152506040518060400160405280600481526020017f57334e530000000000000000000000000000000000000000000000000000000081525081600090805190602001906200013092919062000287565b5080600190805190602001906200014992919062000287565b50505080600890805190602001906200016492919062000287565b50620001b16040518060400160405280601881526020017f2573206e616d652073657276696365206465706c6f796564000000000000000081525082620001b860201b6200158f1760201c565b5062000622565b6200025a8282604051602401620001d192919062000582565b6040516020818303038152906040527f4b5c4277000000000000000000000000000000000000000000000000000000007bffffffffffffffffffffffffffffffffffffffffffffffffffffffff19166020820180517bffffffffffffffffffffffffffffffffffffffffffffffffffffffff83818316178352505050506200025e60201b60201c565b5050565b60008151905060006a636f6e736f6c652e6c6f679050602083016000808483855afa5050505050565b8280546200029590620005ec565b90600052602060002090601f016020900481019282620002b9576000855562000305565b82601f10620002d457805160ff191683800117855562000305565b8280016001018555821562000305579182015b8281111562000304578251825591602001919060010190620002e7565b5b50905062000314919062000318565b5090565b5b808211156200033357600081600090555060010162000319565b5090565b6000604051905090565b600080fd5b600080fd5b600080fd5b600080fd5b6000601f19601f8301169050919050565b7f4e487b7100000000000000000000000000000000000000000000000000000000600052604160045260246000fd5b620003a08262000355565b810181811067ffffffffffffffff82111715620003c257620003c162000366565b5b80604052505050565b6000620003d762000337565b9050620003e5828262000395565b919050565b600067ffffffffffffffff82111562000408576200040762000366565b5b620004138262000355565b9050602081019050919050565b60005b838110156200044057808201518184015260208101905062000423565b8381111562000450576000848401525b50505050565b60006200046d6200046784620003ea565b620003cb565b9050828152602081018484840111156200048c576200048b62000350565b5b6200049984828562000420565b509392505050565b600082601f830112620004b957620004b86200034b565b5b8151620004cb84826020860162000456565b91505092915050565b600060208284031215620004ed57620004ec62000341565b5b600082015167ffffffffffffffff8111156200050e576200050d62000346565b5b6200051c84828501620004a1565b91505092915050565b600081519050919050565b600082825260208201905092915050565b60006200054e8262000525565b6200055a818562000530565b93506200056c81856020860162000420565b620005778162000355565b840191505092915050565b600060408201905081810360008301526200059e818562000541565b90508181036020830152620005b4818462000541565b90509392505050565b7f4e487b7100000000000000000000000000000000000000000000000000000000600052602260045260246000fd5b600060028204905060018216806200060557607f821691505b602082108114156200061c576200061b620005bd565b5b50919050565b61438f80620006326000396000f3fe60806040526004361061012a5760003560e01c80636352211e116100ab578063bf40fac11161006f578063bf40fac114610428578063c1880a9814610465578063c87b56dd1461048e578063e985e9c5146104cb578063f2c298be14610508578063fe2c6198146105245761012a565b80636352211e1461033157806370a082311461036e57806395d89b41146103ab578063a22cb465146103d6578063b88d4fde146103ff5761012a565b806323b872dd116100f257806323b872dd1461023a57806326449235146102635780632d551432146102a057806342842e0e146102cb578063541e771d146102f45761012a565b806301ffc9a71461012f57806306fdde031461016c578063081812fc14610197578063095ea7b3146101d457806311dd8845146101fd575b600080fd5b34801561013b57600080fd5b50610156600480360381019061015191906129d5565b610561565b6040516101639190612a1d565b60405180910390f35b34801561017857600080fd5b50610181610643565b60405161018e9190612ad1565b60405180910390f35b3480156101a357600080fd5b506101be60048036038101906101b99190612b29565b6106d5565b6040516101cb9190612b97565b60405180910390f35b3480156101e057600080fd5b506101fb60048036038101906101f69190612bde565b61075a565b005b34801561020957600080fd5b50610224600480360381019061021f9190612c83565b610872565b6040516102319190612ad1565b60405180910390f35b34801561024657600080fd5b50610261600480360381019061025c9190612cd0565b610925565b005b34801561026f57600080fd5b5061028a60048036038101906102859190612e53565b610985565b6040516102979190612b97565b60405180910390f35b3480156102ac57600080fd5b506102b56109ce565b6040516102c29190612ad1565b60405180910390f35b3480156102d757600080fd5b506102f260048036038101906102ed9190612cd0565b610a5c565b005b34801561030057600080fd5b5061031b60048036038101906103169190612e53565b610a7c565b6040516103289190612ad1565b60405180910390f35b34801561033d57600080fd5b5061035860048036038101906103539190612b29565b610b32565b6040516103659190612b97565b60405180910390f35b34801561037a57600080fd5b5061039560048036038101906103909190612e9c565b610be4565b6040516103a29190612ed8565b60405180910390f35b3480156103b757600080fd5b506103c0610c9c565b6040516103cd9190612ad1565b60405180910390f35b3480156103e257600080fd5b506103fd60048036038101906103f89190612f1f565b610d2e565b005b34801561040b57600080fd5b5061042660048036038101906104219190613000565b610d44565b005b34801561043457600080fd5b5061044f600480360381019061044a9190612c83565b610da6565b60405161045c9190612b97565b60405180910390f35b34801561047157600080fd5b5061048c60048036038101906104879190613083565b610df1565b005b34801561049a57600080fd5b506104b560048036038101906104b09190612b29565b610f22565b6040516104c29190612ad1565b60405180910390f35b3480156104d757600080fd5b506104f260048036038101906104ed9190613104565b611074565b6040516104ff9190612a1d565b60405180910390f35b610522600480360381019061051d9190612c83565b611108565b005b34801561053057600080fd5b5061054b60048036038101906105469190612c83565b6114e9565b6040516105589190612ed8565b60405180910390f35b60007f80ac58cd000000000000000000000000000000000000000000000000000000007bffffffffffffffffffffffffffffffffffffffffffffffffffffffff1916827bffffffffffffffffffffffffffffffffffffffffffffffffffffffff1916148061062c57507f5b5e139f000000000000000000000000000000000000000000000000000000007bffffffffffffffffffffffffffffffffffffffffffffffffffffffff1916827bffffffffffffffffffffffffffffffffffffffffffffffffffffffff1916145b8061063c575061063b8261162b565b5b9050919050565b60606000805461065290613173565b80601f016020809104026020016040519081016040528092919081815260200182805461067e90613173565b80156106cb5780601f106106a0576101008083540402835291602001916106cb565b820191906000526020600020905b8154815290600101906020018083116106ae57829003601f168201915b5050505050905090565b60006106e082611695565b61071f576040517f08c379a000000000000000000000000000000000000000000000000000000000815260040161071690613217565b60405180910390fd5b6004600083815260200190815260200160002060009054906101000a900473ffffffffffffffffffffffffffffffffffffffff169050919050565b600061076582610b32565b90508073ffffffffffffffffffffffffffffffffffffffff168373ffffffffffffffffffffffffffffffffffffffff1614156107d6576040517f08c379a00000000000000000000000000000000000000000000000000000000081526004016107cd906132a9565b60405180910390fd5b8073ffffffffffffffffffffffffffffffffffffffff166107f5611701565b73ffffffffffffffffffffffffffffffffffffffff16148061082457506108238161081e611701565b611074565b5b610863576040517f08c379a000000000000000000000000000000000000000000000000000000000815260040161085a9061333b565b60405180910390fd5b61086d8383611709565b505050565b6060600c838360405161088692919061338b565b9081526020016040518091039020805461089f90613173565b80601f01602080910402602001604051908101604052809291908181526020018280546108cb90613173565b80156109185780601f106108ed57610100808354040283529160200191610918565b820191906000526020600020905b8154815290600101906020018083116108fb57829003601f168201915b5050505050905092915050565b610936610930611701565b826117c2565b610975576040517f08c379a000000000000000000000000000000000000000000000000000000000815260040161096c90613416565b60405180910390fd5b6109808383836118a0565b505050565b600b818051602081018201805184825260208301602085012081835280955050505050506000915054906101000a900473ffffffffffffffffffffffffffffffffffffffff1681565b600880546109db90613173565b80601f0160208091040260200160405190810160405280929190818152602001828054610a0790613173565b8015610a545780601f10610a2957610100808354040283529160200191610a54565b820191906000526020600020905b815481529060010190602001808311610a3757829003601f168201915b505050505081565b610a7783838360405180602001604052806000815250610d44565b505050565b600c818051602081018201805184825260208301602085012081835280955050505050506000915090508054610ab190613173565b80601f0160208091040260200160405190810160405280929190818152602001828054610add90613173565b8015610b2a5780601f10610aff57610100808354040283529160200191610b2a565b820191906000526020600020905b815481529060010190602001808311610b0d57829003601f168201915b505050505081565b6000806002600084815260200190815260200160002060009054906101000a900473ffffffffffffffffffffffffffffffffffffffff169050600073ffffffffffffffffffffffffffffffffffffffff168173ffffffffffffffffffffffffffffffffffffffff161415610bdb576040517f08c379a0000000000000000000000000000000000000000000000000000000008152600401610bd2906134a8565b60405180910390fd5b80915050919050565b60008073ffffffffffffffffffffffffffffffffffffffff168273ffffffffffffffffffffffffffffffffffffffff161415610c55576040517f08c379a0000000000000000000000000000000000000000000000000000000008152600401610c4c9061353a565b60405180910390fd5b600360008373ffffffffffffffffffffffffffffffffffffffff1673ffffffffffffffffffffffffffffffffffffffff168152602001908152602001600020549050919050565b606060018054610cab90613173565b80601f0160208091040260200160405190810160405280929190818152602001828054610cd790613173565b8015610d245780601f10610cf957610100808354040283529160200191610d24565b820191906000526020600020905b815481529060010190602001808311610d0757829003601f168201915b5050505050905090565b610d40610d39611701565b8383611b07565b5050565b610d55610d4f611701565b836117c2565b610d94576040517f08c379a0000000000000000000000000000000000000000000000000000000008152600401610d8b90613416565b60405180910390fd5b610da084848484611c74565b50505050565b6000600b8383604051610dba92919061338b565b908152602001604051809103902060009054906101000a900473ffffffffffffffffffffffffffffffffffffffff16905092915050565b3373ffffffffffffffffffffffffffffffffffffffff16600b8585604051610e1a92919061338b565b908152602001604051809103902060009054906101000a900473ffffffffffffffffffffffffffffffffffffffff1673ffffffffffffffffffffffffffffffffffffffff1614610e6957600080fd5b8181600c8686604051610e7d92919061338b565b90815260200160405180910390209190610e98929190612840565b50610f1c6040518060400160405280600d81526020017f2573207265636f7264696e67210000000000000000000000000000000000000081525083838080601f016020809104026020016040519081016040528093929190818152602001838380828437600081840152601f19601f8201169050808301925050505050505061158f565b50505050565b6060610f2d82611695565b610f6c576040517f08c379a0000000000000000000000000000000000000000000000000000000008152600401610f63906135cc565b60405180910390fd5b6000600660008481526020019081526020016000208054610f8c90613173565b80601f0160208091040260200160405190810160405280929190818152602001828054610fb890613173565b80156110055780601f10610fda57610100808354040283529160200191611005565b820191906000526020600020905b815481529060010190602001808311610fe857829003601f168201915b505050505090506000611016611cd0565b905060008151141561102c57819250505061106f565b60008251111561106157808260405160200161104992919061361d565b6040516020818303038152906040529250505061106f565b61106a84611ce7565b925050505b919050565b6000600560008473ffffffffffffffffffffffffffffffffffffffff1673ffffffffffffffffffffffffffffffffffffffff16815260200190815260200160002060008373ffffffffffffffffffffffffffffffffffffffff1673ffffffffffffffffffffffffffffffffffffffff16815260200190815260200160002060009054906101000a900460ff16905092915050565b600073ffffffffffffffffffffffffffffffffffffffff16600b838360405161113292919061338b565b908152602001604051809103902060009054906101000a900473ffffffffffffffffffffffffffffffffffffffff1673ffffffffffffffffffffffffffffffffffffffff161461118157600080fd5b600061118d83836114e9565b9050803410156111d2576040517f08c379a00000000000000000000000000000000000000000000000000000000081526004016111c99061368d565b60405180910390fd5b6000838360086040516020016111ea9392919061378d565b60405160208183030381529060405290506000600982600a604051602001611214939291906137be565b604051602081830303815290604052905060006112316007611d8e565b9050600061128287878080601f016020809104026020016040519081016040528093929190818152602001838380828437600081840152601f19601f82011690508083019250505050505050611d9c565b9050600061128f82611f51565b90506113836040518060600160405280603181526020016142b06031913989898080601f016020809104026020016040519081016040528093929190818152602001838380828437600081840152601f19601f82011690508083019250505050505050600880546112ff90613173565b80601f016020809104026020016040519081016040528092919081815260200182805461132b90613173565b80156113785780601f1061134d57610100808354040283529160200191611378565b820191906000526020600020905b81548152906001019060200180831161135b57829003601f168201915b5050505050866120b2565b60006113b98661139287612154565b846040516020016113a59392919061396b565b604051602081830303815290604052612154565b90506000816040516020016113ce9190613a14565b6040516020818303038152906040529050611400604051806060016040528060398152602001614277603991396122ec565b61143f6040518060400160405280601381526020017f46696e616c20746f6b656e555249202a2a3e20000000000000000000000000008152508261158f565b6114606040518060600160405280603981526020016142e1603991396122ec565b61146a3386612385565b61147485826123a3565b33600b8b8b60405161148792919061338b565b908152602001604051809103902060006101000a81548173ffffffffffffffffffffffffffffffffffffffff021916908373ffffffffffffffffffffffffffffffffffffffff1602179055506114dd6007612417565b50505050505050505050565b60008061153984848080601f016020809104026020016040519081016040528093929190818152602001838380828437600081840152601f19601f82011690508083019250505050505050611d9c565b90506000811161154857600080fd5b6003811415611562576706f05b59d3b20000915050611589565b600481141561157c57670429d069189e0000915050611589565b67016345785d8a00009150505b92915050565b61162782826040516024016115a5929190613a36565b6040516020818303038152906040527f4b5c4277000000000000000000000000000000000000000000000000000000007bffffffffffffffffffffffffffffffffffffffffffffffffffffffff19166020820180517bffffffffffffffffffffffffffffffffffffffffffffffffffffffff838183161783525050505061242d565b5050565b60007f01ffc9a7000000000000000000000000000000000000000000000000000000007bffffffffffffffffffffffffffffffffffffffffffffffffffffffff1916827bffffffffffffffffffffffffffffffffffffffffffffffffffffffff1916149050919050565b60008073ffffffffffffffffffffffffffffffffffffffff166002600084815260200190815260200160002060009054906101000a900473ffffffffffffffffffffffffffffffffffffffff1673ffffffffffffffffffffffffffffffffffffffff1614159050919050565b600033905090565b816004600083815260200190815260200160002060006101000a81548173ffffffffffffffffffffffffffffffffffffffff021916908373ffffffffffffffffffffffffffffffffffffffff160217905550808273ffffffffffffffffffffffffffffffffffffffff1661177c83610b32565b73ffffffffffffffffffffffffffffffffffffffff167f8c5be1e5ebec7d5bd14f71427d1e84f3dd0314c0f7b2291e5b200ac8c7c3b92560405160405180910390a45050565b60006117cd82611695565b61180c576040517f08c379a000000000000000000000000000000000000000000000000000000000815260040161180390613adf565b60405180910390fd5b600061181783610b32565b90508073ffffffffffffffffffffffffffffffffffffffff168473ffffffffffffffffffffffffffffffffffffffff16148061188657508373ffffffffffffffffffffffffffffffffffffffff1661186e846106d5565b73ffffffffffffffffffffffffffffffffffffffff16145b8061189757506118968185611074565b5b91505092915050565b8273ffffffffffffffffffffffffffffffffffffffff166118c082610b32565b73ffffffffffffffffffffffffffffffffffffffff1614611916576040517f08c379a000000000000000000000000000000000000000000000000000000000815260040161190d90613b71565b60405180910390fd5b600073ffffffffffffffffffffffffffffffffffffffff168273ffffffffffffffffffffffffffffffffffffffff161415611986576040517f08c379a000000000000000000000000000000000000000000000000000000000815260040161197d90613c03565b60405180910390fd5b611991838383612456565b61199c600082611709565b6001600360008573ffffffffffffffffffffffffffffffffffffffff1673ffffffffffffffffffffffffffffffffffffffff16815260200190815260200160002060008282546119ec9190613c52565b925050819055506001600360008473ffffffffffffffffffffffffffffffffffffffff1673ffffffffffffffffffffffffffffffffffffffff1681526020019081526020016000206000828254611a439190613c86565b92505081905550816002600083815260200190815260200160002060006101000a81548173ffffffffffffffffffffffffffffffffffffffff021916908373ffffffffffffffffffffffffffffffffffffffff160217905550808273ffffffffffffffffffffffffffffffffffffffff168473ffffffffffffffffffffffffffffffffffffffff167fddf252ad1be2c89b69c2b068fc378daa952ba7f163c4a11628f55a4df523b3ef60405160405180910390a4611b0283838361245b565b505050565b8173ffffffffffffffffffffffffffffffffffffffff168373ffffffffffffffffffffffffffffffffffffffff161415611b76576040517f08c379a0000000000000000000000000000000000000000000000000000000008152600401611b6d90613d28565b60405180910390fd5b80600560008573ffffffffffffffffffffffffffffffffffffffff1673ffffffffffffffffffffffffffffffffffffffff16815260200190815260200160002060008473ffffffffffffffffffffffffffffffffffffffff1673ffffffffffffffffffffffffffffffffffffffff16815260200190815260200160002060006101000a81548160ff0219169083151502179055508173ffffffffffffffffffffffffffffffffffffffff168373ffffffffffffffffffffffffffffffffffffffff167f17307eab39ab6107e8899845ad3d59bd9653f200f220920489ca2b5937696c3183604051611c679190612a1d565b60405180910390a3505050565b611c7f8484846118a0565b611c8b84848484612460565b611cca576040517f08c379a0000000000000000000000000000000000000000000000000000000008152600401611cc190613dba565b60405180910390fd5b50505050565b606060405180602001604052806000815250905090565b6060611cf282611695565b611d31576040517f08c379a0000000000000000000000000000000000000000000000000000000008152600401611d2890613e4c565b60405180910390fd5b6000611d3b611cd0565b90506000815111611d5b5760405180602001604052806000815250611d86565b80611d6584611f51565b604051602001611d7692919061361d565b6040516020818303038152906040525b915050919050565b600081600001549050919050565b60008060008084519050600092505b80821015611f46576000858381518110611dc857611dc7613e6c565b5b602001015160f81c60f81b9050608060f81b817effffffffffffffffffffffffffffffffffffffffffffffffffffffffffffff19161015611e1757600183611e109190613c86565b9250611f32565b60e060f81b817effffffffffffffffffffffffffffffffffffffffffffffffffffffffffffff19161015611e5957600283611e529190613c86565b9250611f31565b60f060f81b817effffffffffffffffffffffffffffffffffffffffffffffffffffffffffffff19161015611e9b57600383611e949190613c86565b9250611f30565b60f8801b817effffffffffffffffffffffffffffffffffffffffffffffffffffffffffffff19161015611edc57600483611ed59190613c86565b9250611f2f565b60fc60f81b817effffffffffffffffffffffffffffffffffffffffffffffffffffffffffffff19161015611f1e57600583611f179190613c86565b9250611f2e565b600683611f2b9190613c86565b92505b5b5b5b5b508280611f3e90613e9b565b935050611dab565b829350505050919050565b60606000821415611f99576040518060400160405280600181526020017f300000000000000000000000000000000000000000000000000000000000000081525090506120ad565b600082905060005b60008214611fcb578080611fb490613e9b565b915050600a82611fc49190613f13565b9150611fa1565b60008167ffffffffffffffff811115611fe757611fe6612d28565b5b6040519080825280601f01601f1916602001820160405280156120195781602001600182028036833780820191505090505b5090505b600085146120a6576001826120329190613c52565b9150600a856120419190613f44565b603061204d9190613c86565b60f81b81838151811061206357612062613e6c565b5b60200101907effffffffffffffffffffffffffffffffffffffffffffffffffffffffffffff1916908160001a905350600a8561209f9190613f13565b945061201d565b8093505050505b919050565b61214e848484846040516024016120cc9493929190613f75565b6040516020818303038152906040527f9fd009f5000000000000000000000000000000000000000000000000000000007bffffffffffffffffffffffffffffffffffffffffffffffffffffffff19166020820180517bffffffffffffffffffffffffffffffffffffffffffffffffffffffff838183161783525050505061242d565b50505050565b6060600082519050600081141561217d57604051806020016040528060008152509150506122e7565b6000600360028361218e9190613c86565b6121989190613f13565b60046121a49190613fcf565b905060006020826121b59190613c86565b67ffffffffffffffff8111156121ce576121cd612d28565b5b6040519080825280601f01601f1916602001820160405280156122005781602001600182028036833780820191505090505b509050600060405180606001604052806040815260200161431a604091399050600181016020830160005b868110156122a45760038101905062ffffff818a015116603f8160121c168401518060081b905060ff603f83600c1c1686015116810190508060081b905060ff603f8360061c1686015116810190508060081b905060ff603f831686015116810190508060e01b9050808452600484019350505061222b565b5060038606600181146122be57600281146122ce576122d9565b613d3d60f01b60028303526122d9565b603d60f81b60018303525b508484525050819450505050505b919050565b612382816040516024016123009190612ad1565b6040516020818303038152906040527f41304fac000000000000000000000000000000000000000000000000000000007bffffffffffffffffffffffffffffffffffffffffffffffffffffffff19166020820180517bffffffffffffffffffffffffffffffffffffffffffffffffffffffff838183161783525050505061242d565b50565b61239f8282604051806020016040528060008152506125e8565b5050565b6123ac82611695565b6123eb576040517f08c379a00000000000000000000000000000000000000000000000000000000081526004016123e29061409b565b60405180910390fd5b806006600084815260200190815260200160002090805190602001906124129291906128c6565b505050565b6001816000016000828254019250508190555050565b60008151905060006a636f6e736f6c652e6c6f679050602083016000808483855afa5050505050565b505050565b505050565b60006124818473ffffffffffffffffffffffffffffffffffffffff16612643565b156125db578373ffffffffffffffffffffffffffffffffffffffff1663150b7a026124aa611701565b8786866040518563ffffffff1660e01b81526004016124cc9493929190614110565b6020604051808303816000875af192505050801561250857506040513d601f19601f820116820180604052508101906125059190614171565b60015b61258b573d8060008114612538576040519150601f19603f3d011682016040523d82523d6000602084013e61253d565b606091505b50600081511415612583576040517f08c379a000000000000000000000000000000000000000000000000000000000815260040161257a90613dba565b60405180910390fd5b805181602001fd5b63150b7a0260e01b7bffffffffffffffffffffffffffffffffffffffffffffffffffffffff1916817bffffffffffffffffffffffffffffffffffffffffffffffffffffffff1916149150506125e0565b600190505b949350505050565b6125f28383612666565b6125ff6000848484612460565b61263e576040517f08c379a000000000000000000000000000000000000000000000000000000000815260040161263590613dba565b60405180910390fd5b505050565b6000808273ffffffffffffffffffffffffffffffffffffffff163b119050919050565b600073ffffffffffffffffffffffffffffffffffffffff168273ffffffffffffffffffffffffffffffffffffffff1614156126d6576040517f08c379a00000000000000000000000000000000000000000000000000000000081526004016126cd906141ea565b60405180910390fd5b6126df81611695565b1561271f576040517f08c379a000000000000000000000000000000000000000000000000000000000815260040161271690614256565b60405180910390fd5b61272b60008383612456565b6001600360008473ffffffffffffffffffffffffffffffffffffffff1673ffffffffffffffffffffffffffffffffffffffff168152602001908152602001600020600082825461277b9190613c86565b92505081905550816002600083815260200190815260200160002060006101000a81548173ffffffffffffffffffffffffffffffffffffffff021916908373ffffffffffffffffffffffffffffffffffffffff160217905550808273ffffffffffffffffffffffffffffffffffffffff16600073ffffffffffffffffffffffffffffffffffffffff167fddf252ad1be2c89b69c2b068fc378daa952ba7f163c4a11628f55a4df523b3ef60405160405180910390a461283c6000838361245b565b5050565b82805461284c90613173565b90600052602060002090601f01602090048101928261286e57600085556128b5565b82601f1061288757803560ff19168380011785556128b5565b828001600101855582156128b5579182015b828111156128b4578235825591602001919060010190612899565b5b5090506128c2919061294c565b5090565b8280546128d290613173565b90600052602060002090601f0160209004810192826128f4576000855561293b565b82601f1061290d57805160ff191683800117855561293b565b8280016001018555821561293b579182015b8281111561293a57825182559160200191906001019061291f565b5b509050612948919061294c565b5090565b5b8082111561296557600081600090555060010161294d565b5090565b6000604051905090565b600080fd5b600080fd5b60007fffffffff0000000000000000000000000000000000000000000000000000000082169050919050565b6129b28161297d565b81146129bd57600080fd5b50565b6000813590506129cf816129a9565b92915050565b6000602082840312156129eb576129ea612973565b5b60006129f9848285016129c0565b91505092915050565b60008115159050919050565b612a1781612a02565b82525050565b6000602082019050612a326000830184612a0e565b92915050565b600081519050919050565b600082825260208201905092915050565b60005b83811015612a72578082015181840152602081019050612a57565b83811115612a81576000848401525b50505050565b6000601f19601f8301169050919050565b6000612aa382612a38565b612aad8185612a43565b9350612abd818560208601612a54565b612ac681612a87565b840191505092915050565b60006020820190508181036000830152612aeb8184612a98565b905092915050565b6000819050919050565b612b0681612af3565b8114612b1157600080fd5b50565b600081359050612b2381612afd565b92915050565b600060208284031215612b3f57612b3e612973565b5b6000612b4d84828501612b14565b91505092915050565b600073ffffffffffffffffffffffffffffffffffffffff82169050919050565b6000612b8182612b56565b9050919050565b612b9181612b76565b82525050565b6000602082019050612bac6000830184612b88565b92915050565b612bbb81612b76565b8114612bc657600080fd5b50565b600081359050612bd881612bb2565b92915050565b60008060408385031215612bf557612bf4612973565b5b6000612c0385828601612bc9565b9250506020612c1485828601612b14565b9150509250929050565b600080fd5b600080fd5b600080fd5b60008083601f840112612c4357612c42612c1e565b5b8235905067ffffffffffffffff811115612c6057612c5f612c23565b5b602083019150836001820283011115612c7c57612c7b612c28565b5b9250929050565b60008060208385031215612c9a57612c99612973565b5b600083013567ffffffffffffffff811115612cb857612cb7612978565b5b612cc485828601612c2d565b92509250509250929050565b600080600060608486031215612ce957612ce8612973565b5b6000612cf786828701612bc9565b9350506020612d0886828701612bc9565b9250506040612d1986828701612b14565b9150509250925092565b600080fd5b7f4e487b7100000000000000000000000000000000000000000000000000000000600052604160045260246000fd5b612d6082612a87565b810181811067ffffffffffffffff82111715612d7f57612d7e612d28565b5b80604052505050565b6000612d92612969565b9050612d9e8282612d57565b919050565b600067ffffffffffffffff821115612dbe57612dbd612d28565b5b612dc782612a87565b9050602081019050919050565b82818337600083830152505050565b6000612df6612df184612da3565b612d88565b905082815260208101848484011115612e1257612e11612d23565b5b612e1d848285612dd4565b509392505050565b600082601f830112612e3a57612e39612c1e565b5b8135612e4a848260208601612de3565b91505092915050565b600060208284031215612e6957612e68612973565b5b600082013567ffffffffffffffff811115612e8757612e86612978565b5b612e9384828501612e25565b91505092915050565b600060208284031215612eb257612eb1612973565b5b6000612ec084828501612bc9565b91505092915050565b612ed281612af3565b82525050565b6000602082019050612eed6000830184612ec9565b92915050565b612efc81612a02565b8114612f0757600080fd5b50565b600081359050612f1981612ef3565b92915050565b60008060408385031215612f3657612f35612973565b5b6000612f4485828601612bc9565b9250506020612f5585828601612f0a565b9150509250929050565b600067ffffffffffffffff821115612f7a57612f79612d28565b5b612f8382612a87565b9050602081019050919050565b6000612fa3612f9e84612f5f565b612d88565b905082815260208101848484011115612fbf57612fbe612d23565b5b612fca848285612dd4565b509392505050565b600082601f830112612fe757612fe6612c1e565b5b8135612ff7848260208601612f90565b91505092915050565b6000806000806080858703121561301a57613019612973565b5b600061302887828801612bc9565b945050602061303987828801612bc9565b935050604061304a87828801612b14565b925050606085013567ffffffffffffffff81111561306b5761306a612978565b5b61307787828801612fd2565b91505092959194509250565b6000806000806040858703121561309d5761309c612973565b5b600085013567ffffffffffffffff8111156130bb576130ba612978565b5b6130c787828801612c2d565b9450945050602085013567ffffffffffffffff8111156130ea576130e9612978565b5b6130f687828801612c2d565b925092505092959194509250565b6000806040838503121561311b5761311a612973565b5b600061312985828601612bc9565b925050602061313a85828601612bc9565b9150509250929050565b7f4e487b7100000000000000000000000000000000000000000000000000000000600052602260045260246000fd5b6000600282049050600182168061318b57607f821691505b6020821081141561319f5761319e613144565b5b50919050565b7f4552433732313a20617070726f76656420717565727920666f72206e6f6e657860008201527f697374656e7420746f6b656e0000000000000000000000000000000000000000602082015250565b6000613201602c83612a43565b915061320c826131a5565b604082019050919050565b60006020820190508181036000830152613230816131f4565b9050919050565b7f4552433732313a20617070726f76616c20746f2063757272656e74206f776e6560008201527f7200000000000000000000000000000000000000000000000000000000000000602082015250565b6000613293602183612a43565b915061329e82613237565b604082019050919050565b600060208201905081810360008301526132c281613286565b9050919050565b7f4552433732313a20617070726f76652063616c6c6572206973206e6f74206f7760008201527f6e6572206e6f7220617070726f76656420666f7220616c6c0000000000000000602082015250565b6000613325603883612a43565b9150613330826132c9565b604082019050919050565b6000602082019050818103600083015261335481613318565b9050919050565b600081905092915050565b6000613372838561335b565b935061337f838584612dd4565b82840190509392505050565b6000613398828486613366565b91508190509392505050565b7f4552433732313a207472616e736665722063616c6c6572206973206e6f74206f60008201527f776e6572206e6f7220617070726f766564000000000000000000000000000000602082015250565b6000613400603183612a43565b915061340b826133a4565b604082019050919050565b6000602082019050818103600083015261342f816133f3565b9050919050565b7f4552433732313a206f776e657220717565727920666f72206e6f6e657869737460008201527f656e7420746f6b656e0000000000000000000000000000000000000000000000602082015250565b6000613492602983612a43565b915061349d82613436565b604082019050919050565b600060208201905081810360008301526134c181613485565b9050919050565b7f4552433732313a2062616c616e636520717565727920666f7220746865207a6560008201527f726f206164647265737300000000000000000000000000000000000000000000602082015250565b6000613524602a83612a43565b915061352f826134c8565b604082019050919050565b6000602082019050818103600083015261355381613517565b9050919050565b7f45524337323155524953746f726167653a2055524920717565727920666f722060008201527f6e6f6e6578697374656e7420746f6b656e000000000000000000000000000000602082015250565b60006135b6603183612a43565b91506135c18261355a565b604082019050919050565b600060208201905081810360008301526135e5816135a9565b9050919050565b60006135f782612a38565b613601818561335b565b9350613611818560208601612a54565b80840191505092915050565b600061362982856135ec565b915061363582846135ec565b91508190509392505050565b7f4e6f7420656e6f756768204d6174696320706169640000000000000000000000600082015250565b6000613677601583612a43565b915061368282613641565b602082019050919050565b600060208201905081810360008301526136a68161366a565b9050919050565b7f2e00000000000000000000000000000000000000000000000000000000000000600082015250565b60006136e360018361335b565b91506136ee826136ad565b600182019050919050565b60008190508160005260206000209050919050565b6000815461371b81613173565b613725818661335b565b94506001821660008114613740576001811461375157613784565b60ff19831686528186019350613784565b61375a856136f9565b60005b8381101561377c5781548189015260018201915060208101905061375d565b838801955050505b50505092915050565b600061379a828587613366565b91506137a5826136d6565b91506137b1828461370e565b9150819050949350505050565b60006137ca828661370e565b91506137d682856135ec565b91506137e2828461370e565b9150819050949350505050565b7f7b226e616d65223a202200000000000000000000000000000000000000000000600082015250565b6000613825600a8361335b565b9150613830826137ef565b600a82019050919050565b7f222c20226465736372697074696f6e223a20224120646f6d61696e206f6e207460008201527f68652057454233206e616d652073657276696365222c2022696d616765223a2060208201527f22646174613a696d6167652f7376672b786d6c3b6261736536342c0000000000604082015250565b60006138bd605b8361335b565b91506138c88261383b565b605b82019050919050565b7f222c226c656e677468223a220000000000000000000000000000000000000000600082015250565b6000613909600c8361335b565b9150613914826138d3565b600c82019050919050565b7f227d000000000000000000000000000000000000000000000000000000000000600082015250565b600061395560028361335b565b91506139608261391f565b600282019050919050565b600061397682613818565b915061398282866135ec565b915061398d826138b0565b915061399982856135ec565b91506139a4826138fc565b91506139b082846135ec565b91506139bb82613948565b9150819050949350505050565b7f646174613a6170706c69636174696f6e2f6a736f6e3b6261736536342c000000600082015250565b60006139fe601d8361335b565b9150613a09826139c8565b601d82019050919050565b6000613a1f826139f1565b9150613a2b82846135ec565b915081905092915050565b60006040820190508181036000830152613a508185612a98565b90508181036020830152613a648184612a98565b90509392505050565b7f4552433732313a206f70657261746f7220717565727920666f72206e6f6e657860008201527f697374656e7420746f6b656e0000000000000000000000000000000000000000602082015250565b6000613ac9602c83612a43565b9150613ad482613a6d565b604082019050919050565b60006020820190508181036000830152613af881613abc565b9050919050565b7f4552433732313a207472616e736665722066726f6d20696e636f72726563742060008201527f6f776e6572000000000000000000000000000000000000000000000000000000602082015250565b6000613b5b602583612a43565b9150613b6682613aff565b604082019050919050565b60006020820190508181036000830152613b8a81613b4e565b9050919050565b7f4552433732313a207472616e7366657220746f20746865207a65726f2061646460008201527f7265737300000000000000000000000000000000000000000000000000000000602082015250565b6000613bed602483612a43565b9150613bf882613b91565b604082019050919050565b60006020820190508181036000830152613c1c81613be0565b9050919050565b7f4e487b7100000000000000000000000000000000000000000000000000000000600052601160045260246000fd5b6000613c5d82612af3565b9150613c6883612af3565b925082821015613c7b57613c7a613c23565b5b828203905092915050565b6000613c9182612af3565b9150613c9c83612af3565b9250827fffffffffffffffffffffffffffffffffffffffffffffffffffffffffffffffff03821115613cd157613cd0613c23565b5b828201905092915050565b7f4552433732313a20617070726f766520746f2063616c6c657200000000000000600082015250565b6000613d12601983612a43565b9150613d1d82613cdc565b602082019050919050565b60006020820190508181036000830152613d4181613d05565b9050919050565b7f4552433732313a207472616e7366657220746f206e6f6e20455243373231526560008201527f63656976657220696d706c656d656e7465720000000000000000000000000000602082015250565b6000613da4603283612a43565b9150613daf82613d48565b604082019050919050565b60006020820190508181036000830152613dd381613d97565b9050919050565b7f4552433732314d657461646174613a2055524920717565727920666f72206e6f60008201527f6e6578697374656e7420746f6b656e0000000000000000000000000000000000602082015250565b6000613e36602f83612a43565b9150613e4182613dda565b604082019050919050565b60006020820190508181036000830152613e6581613e29565b9050919050565b7f4e487b7100000000000000000000000000000000000000000000000000000000600052603260045260246000fd5b6000613ea682612af3565b91507fffffffffffffffffffffffffffffffffffffffffffffffffffffffffffffffff821415613ed957613ed8613c23565b5b600182019050919050565b7f4e487b7100000000000000000000000000000000000000000000000000000000600052601260045260246000fd5b6000613f1e82612af3565b9150613f2983612af3565b925082613f3957613f38613ee4565b5b828204905092915050565b6000613f4f82612af3565b9150613f5a83612af3565b925082613f6a57613f69613ee4565b5b828206905092915050565b60006080820190508181036000830152613f8f8187612a98565b90508181036020830152613fa38186612a98565b90508181036040830152613fb78185612a98565b9050613fc66060830184612ec9565b95945050505050565b6000613fda82612af3565b9150613fe583612af3565b9250817fffffffffffffffffffffffffffffffffffffffffffffffffffffffffffffffff048311821515161561401e5761401d613c23565b5b828202905092915050565b7f45524337323155524953746f726167653a2055524920736574206f66206e6f6e60008201527f6578697374656e7420746f6b656e000000000000000000000000000000000000602082015250565b6000614085602e83612a43565b915061409082614029565b604082019050919050565b600060208201905081810360008301526140b481614078565b9050919050565b600081519050919050565b600082825260208201905092915050565b60006140e2826140bb565b6140ec81856140c6565b93506140fc818560208601612a54565b61410581612a87565b840191505092915050565b60006080820190506141256000830187612b88565b6141326020830186612b88565b61413f6040830185612ec9565b818103606083015261415181846140d7565b905095945050505050565b60008151905061416b816129a9565b92915050565b60006020828403121561418757614186612973565b5b60006141958482850161415c565b91505092915050565b7f4552433732313a206d696e7420746f20746865207a65726f2061646472657373600082015250565b60006141d4602083612a43565b91506141df8261419e565b602082019050919050565b60006020820190508181036000830152614203816141c7565b9050919050565b7f4552433732313a20746f6b656e20616c7265616479206d696e74656400000000600082015250565b6000614240601c83612a43565b915061424b8261420a565b602082019050919050565b6000602082019050818103600083015261426f81614233565b905091905056fe0a2d2d2d2d2d2d2d2d2d2d2d2d2d2d2d2d2d2d2d2d2d2d2d2d2d2d2d2d2d2d2d2d2d2d2d2d2d2d2d2d2d2d2d2d2d2d2d2d2d2d2d2d2d2d2d2d5265676973746572696e672025732e2573206f6e2074686520636f6e7472616374207769746820746f6b656e49442025642d2d2d2d2d2d2d2d2d2d2d2d2d2d2d2d2d2d2d2d2d2d2d2d2d2d2d2d2d2d2d2d2d2d2d2d2d2d2d2d2d2d2d2d2d2d2d2d2d2d2d2d2d2d2d2d0a4142434445464748494a4b4c4d4e4f505152535455565758595a6162636465666768696a6b6c6d6e6f707172737475767778797a303132333435363738392b2fa2646970667358221220d6b0680d3e33a8a928d37a839c5677ea9eeafbfa6b4566491d056330b070b60064736f6c634300080a00333c73766720786d6c6e733d22687474703a2f2f7777772e77332e6f72672f323030302f737667222077696474683d2232373022206865696768743d22323730222066696c6c3d226e6f6e65223e3c706174682066696c6c3d2275726c282361292220643d224d302030683237307632373048307a222f3e3c646566733e3c66696c7465722069643d22622220636f6c6f722d696e746572706f6c6174696f6e2d66696c746572733d2273524742222066696c746572556e6974733d227573657253706163654f6e55736522206865696768743d22323730222077696474683d22323730223e3c666544726f70536861646f772064783d2230222064793d22312220737464446576696174696f6e3d22322220666c6f6f642d6f7061636974793d222e323235222077696474683d223230302522206865696768743d2232303025222f3e3c2f66696c7465723e3c2f646566733e3c7061746820643d224d37322e3836332034322e39343961342e33383220342e3338322030203020302d342e33393420306c2d31302e30383120362e3033322d362e383520332e3933342d31302e30383120362e30333261342e33383220342e3338322030203020312d342e33393420306c2d382e3031332d342e37323161342e353220342e35322030203020312d312e3538392d312e36313620342e353420342e35342030203020312d2e3630382d322e313837762d392e333161342e323720342e3237203020302031202e3537322d322e32303820342e323520342e323520302030203120312e3632352d312e3539356c372e3838342d342e353961342e33383220342e33383220302030203120342e33393420306c372e38383420342e353961342e353220342e353220302030203120312e35383920312e36313620342e353420342e3534203020302031202e36303820322e31383776362e3033326c362e38352d342e303635762d362e30333261342e323720342e32372030203020302d2e3537322d322e32303820342e323520342e32352030203020302d312e3632352d312e3539354c34312e3435362032342e353961342e33383220342e3338322030203020302d342e33393420306c2d31342e38363420382e36353561342e323520342e32352030203020302d312e36323520312e35393520342e32373320342e3237332030203020302d2e35373220322e3230387631372e34343161342e323720342e3237203020302030202e35373220322e32303820342e323520342e323520302030203020312e36323520312e3539356c31342e38363420382e36353561342e33383220342e33383220302030203020342e33393420306c31302e3038312d352e39303120362e38352d342e3036352031302e3038312d352e39303161342e33383220342e33383220302030203120342e33393420306c372e38383420342e353961342e353220342e353220302030203120312e35383920312e36313620342e353420342e3534203020302031202e36303820322e31383776392e33313161342e323720342e32372030203020312d2e35373220322e32303820342e323520342e32352030203020312d312e36323520312e3539356c2d372e38383420342e37323161342e33383220342e3338322030203020312d342e33393420306c2d372e3838342d342e353961342e353220342e35322030203020312d312e3538392d312e36313620342e353320342e35332030203020312d2e3630382d322e313837762d362e3033326c2d362e383520342e30363576362e30333261342e323720342e3237203020302030202e35373220322e32303820342e323520342e323520302030203020312e36323520312e3539356c31342e38363420382e36353561342e33383220342e33383220302030203020342e33393420306c31342e3836342d382e36353561342e35343520342e35343520302030203020322e3139382d332e3830335635352e35333861342e323720342e32372030203020302d2e3537322d322e32303820342e323520342e32352030203020302d312e3632352d312e3539356c2d31342e3939332d382e3738367a222066696c6c3d2223656165326237222f3e3c646566733e3c6c696e6561724772616469656e742069643d2261222078313d2230222079313d2230222078323d22323730222079323d2232373022206772616469656e74556e6974733d227573657253706163654f6e557365223e3c73746f702073746f702d636f6c6f723d2223653736663531222f3e3c73746f70206f66667365743d2231222073746f702d636f6c6f723d2223326139643866222073746f702d6f7061636974793d222e3939222f3e3c2f6c696e6561724772616469656e743e3c2f646566733e3c7465787420783d2233322e352220793d223233312220666f6e742d73697a653d223237222066696c6c3d2223666362663439222066696c7465723d2275726c282362292220666f6e742d66616d696c793d22506c7573204a616b617274612053616e732c44656a6156752053616e732c4e6f746f20436f6c6f7220456d6f6a692c4170706c6520436f6c6f7220456d6f6a692c73616e732d73657269662220666f6e742d7765696768743d22626f6c64223e",
  "linkReferences": {},
  "deployedLinkReferences": {}
}